:060000000C942F000C948B
:1000060000000C9400000C9400000C9400000C946A
:1000160000000C9400000C9400000C9400000C945A
:1000260000000C9400000C9400000C9400000C944A
:1000360000000C9400000C9400000C9400000C943A
:1000460000000C9400000C9400000C940000C80002
:100056000200040054000000F894EE27ECBBF1E027
:10006600FBBFEBBFE5BF8DE0A2E0BB27ED938A9512
:10007600E9F780E098E0A0E6ED930197E9F7E6E579
:10008600F0E085919591009761F0A591B591059065
:100096001590BF01F00105900D920197E1F7FB0164
:1000A600F0CFEFE5EDBFE8E0EEBFC0E6D2E00C949E
:1000B6005C00E0E0EABBEFEFEBBBE4BBA89AD20141
:1000C6000E948100A898D2010E948100C89905C0AB
:1000D600E4E1F0E0E415F5050CF003C0F2017497D5
:1000E6002F01C99905C0E8EEF3E04E165F060CF045
:1000F60003C0F20174962F01E1CFFFCF109639F0BD
:10010600A89580ED97E00197F1F71197C9F7089543
:00000001FF
