:020000000C945E
:1000020037000C9400000C9400000C9400000C9437
:1000120000000C9400000C9400000C9400000C945E
:1000220000000C9400000C9400000C9400000C944E
:1000320000000C9400000C9400000C9400000C943E
:1000420000000C9400000C9400000C9400000C942E
:1000520000000000FFFFFFFEFDFBF7FEFFEF0200C6
:10006200040054000A00600256000000F894EE27D3
:10007200ECBBF1E0FBBFEBBFE5BF8DE0A2E0BB272D
:10008200ED938A95E9F780E098E0A0E6ED93019779
:10009200E9F7E0E6F0E085919591009761F0A5918E
:1000A200B59105901590BF01F00105900D92019751
:1000B200E1F7FB01F0CFEFE5EDBFE8E0EEBFC0E610
:1000C200D2E00C946400EFEFE4BBE1BBE3E0F0E0CC
:1000D2002F01E6E0F0E0E415F5052CF014D0F20172
:1000E20031962F01F6CF4424552444245524E3E0CD
:1000F200F0E04E165F062CF406D0F20131962F0185
:10010200F6CFE4CFFFCFA0E6B2E0A40DB51DEC918F
:10011200E2BBE6E0E5BBA2E3B0E00E94B700F20179
:10012200EF59FD4FE081E2BBE6E6E5BBA2E3B0E0BA
:100132000E94B700F201EE59FD4FE081E2BBEFE30E
:10014200E5BBA2E3B0E00E94B700F201ED59FD4F1A
:10015200E081E2BBEFE4E5BBA2E3B0E00E94B700BE
:10016200E0E0E5BBA0E9B1E00C94B700109639F0ED
:10017200A89580ED97E00197F1F71197C9F70895D7
:00000001FF
