:060000000C942A000C9490
:1000060000000C9400000C9400000C9400000C946A
:1000160000000C9400000C9400000C9400000C945A
:1000260000000C9400000C9400000C9400000C944A
:1000360000000C9400000C9400000C9400000C943A
:1000460000000C9400000C9400000C940000F8943E
:10005600EE27ECBBF1E0FBBFEBBFE5BF8DE0A2E016
:10006600BB27ED938A95E9F780E098E0A0E6ED934B
:100076000197E9F7EFE5EDBFE8E0EEBFC0E6D2E0B5
:100086000C944500EFEFE4BBA89AA99AAA9AAB9AFA
:10009600AC9AAD9AAE9AAF9AA4E6B0E00E9461001F
:1000A600A898A998AA98AB98AC98AD98AE98AF982E
:1000B600A4E6B0E00E946100E7CFFFCF109639F0CA
:1000C600A89580ED97E00197F1F71197C9F7089584
:00000001FF
