:0A0000000C942A000C9400000C94EC
:10000A0000000C9400000C9400000C9400000C9466
:10001A0000000C9400000C9400000C9400000C9456
:10002A0000000C9400000C9400000C9400000C9446
:10003A0000000C9400000C9400000C9400000C9436
:10004A0000000C9400000C940000F894EE27ECBB1E
:10005A00F1E0FBBFEBBFE5BF8DE0A2E0BB27ED936C
:10006A008A95E9F780E098E0A0E6ED930197E9F731
:10007A00EFE5EDBFE8E0EEBFC0E6D2E00C94450044
:10008A00EFEFE4BB01E010E00138E0E01E0744F4C2
:10009A0005BBA4E6B0E00E946900000F111FF4CF6F
:1000AA0000E410E00230E0E01E0764F005BBA4E6BD
:1000BA00B0E00E946900D801E2E0F0E00E948A0004
:1000CA008F01F0CFDFCFFFCF109639F0A89580EDE2
:1000DA0097E00197F1F71197C9F70895F195E1951E
:1000EA00F04008950024112490E1AA0FBB1F001CC0
:1000FA00111C0E1A1F0A18F40E0E1F1E01C0A16051
:10010A009A9599F7FD01D001089504D0EBDF0EF41A
:10011A00E5DF0895E894F7FF02C0E0DF6894B7FFCF
:10012A0006C0A095B095119600F8039400FA0895B8
:00000001FF
