:020000000C945E
:100002002A000C9400000C9400000C9400000C9444
:1000120000000C9400000C9400000C9400000C945E
:1000220000000C9400000C9400000C9400000C944E
:1000320000000C9400000C9400000C9400000C943E
:1000420000000C9400000C9400000C9400000C942E
:100052000000F894EE27ECBBF1E0FBBFEBBFE5BF7D
:100062008DE0A2E0BB27ED938A95E9F780E098E066
:10007200A0E6ED930197E9F7EFE5EDBFE8E0EEBF0B
:10008200C0E6D2E00C944500EFEFE4BBE1BBEEE04A
:10009200E2BBE6E00ED0EDE0E2BBE6E60AD0EBE042
:1000A200E2BBEFE306D0E7E0E2BBE6E602D0EFCF49
:1000B200FFCFE5BBA2E0B0E00C945F00109639F0F0
:1000C200A89580ED97E00197F1F71197C9F7089588
:00000001FF
