:0C0000000C942A000C9400000C940000EA
:10000C000C9400000C9400000C9400000C94000064
:10001C000C9400000C9400000C9400000C94000054
:10002C000C9400000C9400000C9400000C94000044
:10003C000C9400000C9400000C9400000C94000034
:10004C000C9400000C940000F894EE27ECBBF1E04B
:10005C00FBBFEBBFE5BF8DE0A2E0BB27ED938A951C
:10006C00E9F780E098E0A0E6ED930197E9F7EFE57A
:10007C00EDBFE8E0EEBFC0E6D2E00C944500EFEF38
:10008C00E4BB07E010E0112322F00FD00150104028
:10009C00FACF01E010E00730E0E01E0724F405D0B1
:1000AC000F5F1F4FF8CFEDCFFFCFE02FA1E00E94E5
:1000BC006E00E5BBA4E6B0E00C946400109639F039
:1000CC00A89580ED97E00197F1F71197C9F708957E
:1000DC00EE230E2EEA2F19F0EE0F0A94E9F708958D
:00000001FF
