:080000000C942A000C9400008E
:100008000C9400000C9400000C9400000C94000068
:100018000C9400000C9400000C9400000C94000058
:100028000C9400000C9400000C9400000C94000048
:100038000C9400000C9400000C9400000C94000038
:100048000C9400000C9400000C940000F894EE2727
:10005800ECBBF1E0FBBFEBBFE5BF8DE0A2E0BB2747
:10006800ED938A95E9F780E098E0A0E6ED93019793
:10007800E9F7EFE5EDBFE8E0EEBFC0E6D2E00C94AB
:100088004500EFEFE4BBA89AA6E9B0E00E94620041
:10009800A89810D0A99AA4E6B0E00E946200A99896
:1000A80009D0AA9AA6E9B0E00E946200AA9802D0F4
:1000B800EACFFFCFA2E3B0E00C946200109639F0CB
:1000C800A89580ED97E00197F1F71197C9F7089582
:00000001FF
