:080000000C942A000C9400008E
:100008000C9400000C9400000C9400000C94000068
:100018000C9400000C9400000C9400000C94000058
:100028000C9400000C9400000C9400000C94000048
:100038000C9400000C9400000C9400000C94000038
:100048000C9400000C9400000C940000F894EE2727
:10005800ECBBF1E0FBBFEBBFE5BF8DE0A2E0BB2747
:10006800ED938A95E9F780E098E0A0E6ED93019793
:10007800E9F7EFE5EDBFE8E0EEBFC0E6D2E00C94AB
:100088004500EFEFE4BBE8E10CD0E4E10AD0E2E19F
:1000980008D0E1E106D0E2E104D0E4E102D0F3CFF8
:1000A800FFCFE5BBA4E6B0E00C945A00109639F0F7
:1000B800A89580ED97E00197F1F71197C9F7089592
:00000001FF
