:0E0000000C9437000C9400000C9400000C943B
:10000E0000000C9400000C9400000C9400000C9462
:10001E0000000C9400000C9400000C9400000C9452
:10002E0000000C9400000C9400000C9400000C9442
:10003E0000000C9400000C9400000C9400000C9432
:10004E0000000C94000000003F065B4F666D7D07BC
:10005E007F6F0200040054000A0060025600000088
:10006E00F894EE27ECBBF1E0FBBFEBBFE5BF8DE0F4
:10007E00A2E0BB27ED938A95E9F780E098E0A0E631
:10008E00ED930197E9F7E0E6F0E085919591009701
:10009E0061F0A591B59105901590BF01F001059005
:1000AE000D920197E1F7FB01F0CFEFE5EDBFE8E030
:1000BE00EEBFC0E6D2E00C946400EFEFE4BBE1BB10
:1000CE00D201E8EEF3E00E94DE006F01D201E8EE0D
:1000DE00F3E00E94E300DF01E4E6F0E00E94DE00C0
:1000EE005F01D201E4E6F0E00E94E300DF01EAE006
:1000FE00F0E00E94DE004F01D201EAE0F0E00E9443
:10010E00E3003F01E7EFE2BBA0E6B2E0A60DB71DAC
:10011E000E94B700EBEFE2BBA0E6B2E0A80DB91D5E
:10012E000E94B700EDEFE2BBA0E6B2E0AA0DBB1D48
:10013E000E94B700EEEFE2BBA0E6B2E0AC0DBD1D33
:10014E000E94B700F20131962F01EFE0F7E2E415BD
:10015E00F50514F00C94B50044245524B1CFFFCF0F
:10016E00EC91E5BBA2E0B0E00C94BD00109639F026
:10017E00A89580ED97E00197F1F71197C9F70895CB
:10018E00F195E195F04008950024112490E1AA0F15
:10019E00BB1F001C111C0E1A1F0A18F40E0E1F1E78
:1001AE0001C0A1609A9599F7FD01D001089512D072
:1001BE00EBDF0EF4E5DF0895E894B7FF04C0A095D9
:1001CE00B09511966894F7FDDBDFDEDFFD010EF4CE
:1001DE00D7DF0895E894F7FF02C0D2DF6894B7FF27
:1001EE0006C0A095B095119600F8039400FA0895F4
:00000001FF
