:020000000C945E
:1000020037000C9400000C9400000C9400000C9437
:1000120000000C9400000C9400000C9400000C945E
:1000220000000C9400000C9400000C9400000C944E
:1000320000000C9400000C9400000C9400000C943E
:1000420000000C9400000C9400000C9400000C942E
:10005200000000003F065B4F666D7D077F6F020068
:10006200040054000A00600256000000F894EE27D3
:10007200ECBBF1E0FBBFEBBFE5BF8DE0A2E0BB272D
:10008200ED938A95E9F780E098E0A0E6ED93019779
:10009200E9F7E0E6F0E085919591009761F0A5918E
:1000A200B59105901590BF01F00105900D92019751
:1000B200E1F7FB01F0CFEFE5EDBFE8E0EEBFC0E610
:1000C200D2E00C946400EFEFE4BBE1BBD201E8EEB6
:1000D200F3E00E94D8006F01D201E8EEF3E00E9443
:1000E200DD00DF01E4E6F0E00E94D8005F01D2010A
:1000F200E4E6F0E00E94DD00DF01EAE0F0E00E94C9
:10010200D8004F01D201EAE0F0E00E94DD003F0199
:10011200E7EFE2BBA0E6B2E0A60DB71D21D0EBEF00
:10012200E2BBA0E6B2E0A80DB91D1AD0EDEFE2BB2A
:10013200A0E6B2E0AA0DBB1D13D0EEEFE2BBA0E633
:10014200B2E0AC0DBD1D0CD0F20131962F01EFE0F3
:10015200F7E2E415F50514F444245524B7CFFFCF94
:10016200EC91E5BBAFE0B0E00C94B700109639F02B
:10017200A89580ED97E00197F1F71197C9F70895D7
:10018200F195E195F04008950024112490E1AA0F21
:10019200BB1F001C111C0E1A1F0A18F40E0E1F1E84
:1001A20001C0A1609A9599F7FD01D001089512D07E
:1001B200EBDF0EF4E5DF0895E894B7FF04C0A095E5
:1001C200B09511966894F7FDDBDFDEDFFD010EF4DA
:1001D200D7DF0895E894F7FF02C0D2DF6894B7FF33
:1001E20006C0A095B095119600F8039400FA089500
:00000001FF
