:0C0000000C942A000C9400000C940000EA
:10000C000C9400000C9400000C9400000C94000064
:10001C000C9400000C9400000C9400000C94000054
:10002C000C9400000C9400000C9400000C94000044
:10003C000C9400000C9400000C9400000C94000034
:10004C000C9400000C940000F894EE27ECBBF1E04B
:10005C00FBBFEBBFE5BF8DE0A2E0BB27ED938A951C
:10006C00E9F780E098E0A0E6ED930197E9F7EFE57A
:10007C00EDBFE8E0EEBFC0E6D2E00C944500EFEF38
:10008C00E4BBE8E0F0E08F01DF01E0E1F0E09F018C
:10009C00EA23FB23D801E1E0F0E00E94AE000E2E33
:1000AC00D901E0E8F0E00E94A800E02179F035D019
:1000BC00D801E2E0F0E00E94D3008F01DF01F901EA
:1000CC00EE0FFF1F9F01EA23FB23E4CFE2E0F0E0F9
:1000DC008F01DF01E0E4F0E09F01EA23FB23D8016C
:1000EC00E8E0F0E00E94B4000E2ED901E0E1F0E06F
:1000FC000E94BA00E02179F010D0F801EE0FFF1F3A
:10010C008F01BF01D901E2E0F0E00E94D3009F0112
:10011C00E623F723E4CFB5CFFFCFE22FE00FE5BB0B
:10012C00A4E6B0E00C949A00109639F0A89580EDF6
:10013C0097E00197F1F71197C9F70895F195E195BB
:10014C00F0400895EA17FB07E1E00CF4EE27089560
:10015C00AE17BF07E1E00CF4EE270895AE17BF070A
:10016C00E1E00CF0EE270895EA17FB07E1E00CF054
:10017C00EE2708950024112490E1AA0FBB1F001C48
:10018C00111C0E1A1F0A18F40E0E1F1E01C0A160BE
:10019C009A9599F7FD01D001089504D0EBDF0EF488
:1001AC00CDDF0895E894F7FF02C0C8DF6894B7FF6D
:1001BC0006C0A095B095119600F8039400FA089526
:00000001FF
